{"abi":[{"type":"constructor","inputs":[],"stateMutability":"nonpayable"},{"type":"function","name":"allowance","inputs":[{"name":"_owner","type":"address","internalType":"address"},{"name":"_spender","type":"address","internalType":"address"}],"outputs":[{"name":"","type":"uint256","internalType":"uint256"}],"stateMutability":"view"},{"type":"function","name":"approve","inputs":[{"name":"_spender","type":"address","internalType":"address"},{"name":"amount","type":"uint256","internalType":"uint256"}],"outputs":[],"stateMutability":"nonpayable"},{"type":"function","name":"balanceOf","inputs":[{"name":"_owner","type":"address","internalType":"address"}],"outputs":[{"name":"","type":"uint256","internalType":"uint256"}],"stateMutability":"view"},{"type":"function","name":"decimal","inputs":[],"outputs":[{"name":"","type":"uint8","internalType":"uint8"}],"stateMutability":"view"},{"type":"function","name":"name","inputs":[],"outputs":[{"name":"","type":"string","internalType":"string"}],"stateMutability":"view"},{"type":"function","name":"symbol","inputs":[],"outputs":[{"name":"","type":"string","internalType":"string"}],"stateMutability":"view"},{"type":"function","name":"totalSupply","inputs":[],"outputs":[{"name":"","type":"uint256","internalType":"uint256"}],"stateMutability":"view"},{"type":"function","name":"transfer","inputs":[{"name":"_to","type":"address","internalType":"address"},{"name":"_value","type":"uint256","internalType":"uint256"}],"outputs":[{"name":"","type":"bool","internalType":"bool"}],"stateMutability":"nonpayable"},{"type":"function","name":"transferFrom","inputs":[{"name":"_from","type":"address","internalType":"address"},{"name":"_to","type":"address","internalType":"address"},{"name":"_value","type":"uint256","internalType":"uint256"}],"outputs":[],"stateMutability":"nonpayable"},{"type":"event","name":"Approval","inputs":[{"name":"_owner","type":"address","indexed":false,"internalType":"address"},{"name":"_to","type":"address","indexed":false,"internalType":"address"},{"name":"amount","type":"uint256","indexed":false,"internalType":"uint256"}],"anonymous":false},{"type":"event","name":"Transfer","inputs":[{"name":"from","type":"address","indexed":false,"internalType":"address"},{"name":"_to","type":"address","indexed":false,"internalType":"address"},{"name":"amount","type":"uint256","indexed":false,"internalType":"uint256"}],"anonymous":false}],"bytecode":{"object":"0x608060405234801561001057600080fd5b5060408051808201909152601381527f416e616c7973697320437269707420486173680000000000000000000000000060208201526000906100529082610141565b5060408051808201909152600381526208286960eb1b602082015260019061007a9082610141565b506002805460ff1916601217905560035433600090815260046020526040902055610200565b634e487b7160e01b600052604160045260246000fd5b600181811c908216806100ca57607f821691505b6020821081036100ea57634e487b7160e01b600052602260045260246000fd5b50919050565b601f82111561013c576000816000526020600020601f850160051c810160208610156101195750805b601f850160051c820191505b8181101561013857828155600101610125565b5050505b505050565b81516001600160401b0381111561015a5761015a6100a0565b61016e8161016884546100b6565b846100f0565b602080601f8311600181146101a3576000841561018b5750858301515b600019600386901b1c1916600185901b178555610138565b600085815260208120601f198616915b828110156101d2578886015182559484019460019091019084016101b3565b50858210156101f05787850151600019600388901b60f8161c191681555b5050505050600190811b01905550565b61068f8061020f6000396000f3fe608060405234801561001057600080fd5b50600436106100935760003560e01c806370a082311161006657806370a08231146100f557806376809ce31461011e57806395d89b411461013d578063a9059cbb14610145578063dd62ed3e1461016857600080fd5b806306fdde0314610098578063095ea7b3146100b657806318160ddd146100cb57806323b872dd146100e2575b600080fd5b6100a06101a2565b6040516100ad91906104bd565b60405180910390f35b6100c96100c4366004610528565b610230565b005b6100d460035481565b6040519081526020016100ad565b6100c96100f0366004610552565b61029b565b6100d461010336600461058e565b6001600160a01b031660009081526004602052604090205490565b60025461012b9060ff1681565b60405160ff90911681526020016100ad565b6100a06103b6565b610158610153366004610528565b6103c3565b60405190151581526020016100ad565b6100d46101763660046105b0565b6001600160a01b0380821660009081526005602090815260408083209386168352929052205492915050565b600080546101af906105e3565b80601f01602080910402602001604051908101604052809291908181526020018280546101db906105e3565b80156102285780601f106101fd57610100808354040283529160200191610228565b820191906000526020600020905b81548152906001019060200180831161020b57829003601f168201915b505050505081565b3360008181526005602090815260408083206001600160a01b0387168085529083529281902085905580519384529083019190915281018290527f8c5be1e5ebec7d5bd14f71427d1e84f3dd0314c0f7b2291e5b200ac8c7c3b9259060600160405180910390a15050565b6001600160a01b038316600090815260056020908152604080832033845290915290205481111561030c5760405162461bcd60e51b8152602060048201526016602482015275494e53554646494349454e545f414c4c4f57414e434560501b60448201526064015b60405180910390fd5b6001600160a01b03831660009081526004602052604081208054839290610334908490610633565b90915550506001600160a01b03821660009081526004602052604081208054839290610361908490610646565b9091555050604080516001600160a01b038086168252841660208201529081018290527fddf252ad1be2c89b69c2b068fc378daa952ba7f163c4a11628f55a4df523b3ef9060600160405180910390a1505050565b600180546101af906105e3565b336000908152600460205260408120548211156104195760405162461bcd60e51b8152602060048201526014602482015273125394d553119250d25153951157d05353d5539560621b6044820152606401610303565b6001600160a01b03831660009081526004602052604081208054849290610441908490610646565b90915550503360009081526004602052604081208054849290610465908490610633565b9091555050604080513381526001600160a01b03851660208201529081018390527fddf252ad1be2c89b69c2b068fc378daa952ba7f163c4a11628f55a4df523b3ef9060600160405180910390a15060015b92915050565b60006020808352835180602085015260005b818110156104eb578581018301518582016040015282016104cf565b506000604082860101526040601f19601f8301168501019250505092915050565b80356001600160a01b038116811461052357600080fd5b919050565b6000806040838503121561053b57600080fd5b6105448361050c565b946020939093013593505050565b60008060006060848603121561056757600080fd5b6105708461050c565b925061057e6020850161050c565b9150604084013590509250925092565b6000602082840312156105a057600080fd5b6105a98261050c565b9392505050565b600080604083850312156105c357600080fd5b6105cc8361050c565b91506105da6020840161050c565b90509250929050565b600181811c908216806105f757607f821691505b60208210810361061757634e487b7160e01b600052602260045260246000fd5b50919050565b634e487b7160e01b600052601160045260246000fd5b818103818111156104b7576104b761061d565b808201808211156104b7576104b761061d56fea2646970667358221220b5bd8968da067ffb221fc57497e0319cc6c07be45f4e36c5647aaa971c55643664736f6c63430008180033","linkReferences":{}},"methodIdentifiers":{"allowance(address,address)":"dd62ed3e","approve(address,uint256)":"095ea7b3","balanceOf(address)":"70a08231","decimal()":"76809ce3","name()":"06fdde03","symbol()":"95d89b41","totalSupply()":"18160ddd","transfer(address,uint256)":"a9059cbb","transferFrom(address,address,uint256)":"23b872dd"},"id":17}